{
  "contractName": "CandidateVoting",
  "abi": [
    {
      "inputs": [
        {
          "internalType": "address",
          "name": "_voterRegistration",
          "type": "address"
        }
      ],
      "stateMutability": "nonpayable",
      "type": "constructor"
    },
    {
      "anonymous": false,
      "inputs": [
        {
          "indexed": false,
          "internalType": "uint256",
          "name": "candidateId",
          "type": "uint256"
        },
        {
          "indexed": false,
          "internalType": "string",
          "name": "candidateName",
          "type": "string"
        },
        {
          "indexed": false,
          "internalType": "uint256",
          "name": "voteCount",
          "type": "uint256"
        }
      ],
      "name": "ElectionResult",
      "type": "event"
    },
    {
      "inputs": [
        {
          "internalType": "uint256",
          "name": "",
          "type": "uint256"
        }
      ],
      "name": "candidates",
      "outputs": [
        {
          "internalType": "uint256",
          "name": "id",
          "type": "uint256"
        },
        {
          "internalType": "string",
          "name": "name",
          "type": "string"
        },
        {
          "internalType": "uint256",
          "name": "voteCount",
          "type": "uint256"
        }
      ],
      "stateMutability": "view",
      "type": "function",
      "constant": true
    },
    {
      "inputs": [],
      "name": "candidatesCount",
      "outputs": [
        {
          "internalType": "uint256",
          "name": "",
          "type": "uint256"
        }
      ],
      "stateMutability": "view",
      "type": "function",
      "constant": true
    },
    {
      "inputs": [],
      "name": "owner",
      "outputs": [
        {
          "internalType": "address",
          "name": "",
          "type": "address"
        }
      ],
      "stateMutability": "view",
      "type": "function",
      "constant": true
    },
    {
      "inputs": [],
      "name": "voterRegistration",
      "outputs": [
        {
          "internalType": "contract VoterRegistration",
          "name": "",
          "type": "address"
        }
      ],
      "stateMutability": "view",
      "type": "function",
      "constant": true
    },
    {
      "inputs": [
        {
          "internalType": "string",
          "name": "_name",
          "type": "string"
        }
      ],
      "name": "addCandidate",
      "outputs": [],
      "stateMutability": "nonpayable",
      "type": "function"
    },
    {
      "inputs": [
        {
          "internalType": "uint256",
          "name": "_candidateId",
          "type": "uint256"
        }
      ],
      "name": "vote",
      "outputs": [],
      "stateMutability": "nonpayable",
      "type": "function"
    },
    {
      "inputs": [],
      "name": "getResults",
      "outputs": [
        {
          "components": [
            {
              "internalType": "uint256",
              "name": "id",
              "type": "uint256"
            },
            {
              "internalType": "string",
              "name": "name",
              "type": "string"
            },
            {
              "internalType": "uint256",
              "name": "voteCount",
              "type": "uint256"
            }
          ],
          "internalType": "struct CandidateVoting.Candidate[]",
          "name": "",
          "type": "tuple[]"
        }
      ],
      "stateMutability": "view",
      "type": "function",
      "constant": true
    }
  ],
  "bytecode": "0x60806040523480156200001157600080fd5b50604051620013ca380380620013ca8339818101604052810190620000379190620000d7565b33600260006101000a81548173ffffffffffffffffffffffffffffffffffffffff021916908373ffffffffffffffffffffffffffffffffffffffff16021790555080600360006101000a81548173ffffffffffffffffffffffffffffffffffffffff021916908373ffffffffffffffffffffffffffffffffffffffff1602179055505062000151565b600081519050620000d18162000137565b92915050565b600060208284031215620000ea57600080fd5b6000620000fa84828501620000c0565b91505092915050565b6000620001108262000117565b9050919050565b600073ffffffffffffffffffffffffffffffffffffffff82169050919050565b620001428162000103565b81146200014e57600080fd5b50565b61126980620001616000396000f3fe608060405234801561001057600080fd5b506004361061007d5760003560e01c8063462e91ec1161005b578063462e91ec146100ee5780634717f97c1461010a5780636f6379e3146101285780638da5cb5b146101465761007d565b80630121b93f146100825780632d35a8a21461009e5780633477ee2e146100bc575b600080fd5b61009c60048036038101906100979190610a40565b610164565b005b6100a66104ab565b6040516100b39190610e97565b60405180910390f35b6100d660048036038101906100d19190610a40565b6104b1565b6040516100e593929190610eb2565b60405180910390f35b610108600480360381019061010391906109ff565b610563565b005b610112610674565b60405161011f9190610dda565b60405180910390f35b610130610834565b60405161013d9190610dfc565b60405180910390f35b61014e61085a565b60405161015b9190610d96565b60405180910390f35b600360009054906101000a900473ffffffffffffffffffffffffffffffffffffffff1673ffffffffffffffffffffffffffffffffffffffff1663c3c5a547336040518263ffffffff1660e01b81526004016101bf9190610d96565b60206040518083038186803b1580156101d757600080fd5b505afa1580156101eb573d6000803e3d6000fd5b505050506040513d601f19601f8201168201806040525081019061020f91906109d6565b61024e576040517f08c379a000000000000000000000000000000000000000000000000000000000815260040161024590610e37565b60405180910390fd5b600360009054906101000a900473ffffffffffffffffffffffffffffffffffffffff1673ffffffffffffffffffffffffffffffffffffffff166309eef43e336040518263ffffffff1660e01b81526004016102a99190610d96565b60206040518083038186803b1580156102c157600080fd5b505afa1580156102d5573d6000803e3d6000fd5b505050506040513d601f19601f820116820180604052508101906102f991906109d6565b15610339576040517f08c379a000000000000000000000000000000000000000000000000000000000815260040161033090610e77565b60405180910390fd5b60008111801561034b57506001548111155b61038a576040517f08c379a000000000000000000000000000000000000000000000000000000000815260040161038190610e57565b60405180910390fd5b600360009054906101000a900473ffffffffffffffffffffffffffffffffffffffff1673ffffffffffffffffffffffffffffffffffffffff1663a446b90033836040518363ffffffff1660e01b81526004016103e7929190610db1565b600060405180830381600087803b15801561040157600080fd5b505af1158015610415573d6000803e3d6000fd5b50505050600080828152602001908152602001600020600201600081548092919061043f9061111e565b91905055507fcf6077765dc831e8f5aa3a41d076683c526ca02e715254168c006ec53fddbdf581600080848152602001908152602001600020600101600080858152602001908152602001600020600201546040516104a093929190610ef0565b60405180910390a150565b60015481565b60006020528060005260406000206000915090508060000154908060010180546104da906110ec565b80601f0160208091040260200160405190810160405280929190818152602001828054610506906110ec565b80156105535780601f1061052857610100808354040283529160200191610553565b820191906000526020600020905b81548152906001019060200180831161053657829003601f168201915b5050505050908060020154905083565b600260009054906101000a900473ffffffffffffffffffffffffffffffffffffffff1673ffffffffffffffffffffffffffffffffffffffff163373ffffffffffffffffffffffffffffffffffffffff16146105f3576040517f08c379a00000000000000000000000000000000000000000000000000000000081526004016105ea90610e17565b60405180910390fd5b600160008154809291906106069061111e565b91905055506040518060600160405280600154815260200182815260200160008152506000806001548152602001908152602001600020600082015181600001556020820151816001019080519060200190610663929190610880565b506040820151816002015590505050565b6060600060015467ffffffffffffffff8111156106ba577f4e487b7100000000000000000000000000000000000000000000000000000000600052604160045260246000fd5b6040519080825280602002602001820160405280156106f357816020015b6106e0610906565b8152602001906001900390816106d85790505b5090506000600190505b600154811161082c576000808281526020019081526020016000206040518060600160405290816000820154815260200160018201805461073d906110ec565b80601f0160208091040260200160405190810160405280929190818152602001828054610769906110ec565b80156107b65780601f1061078b576101008083540402835291602001916107b6565b820191906000526020600020905b81548152906001019060200180831161079957829003601f168201915b50505050508152602001600282015481525050826001836107d7919061100a565b8151811061080e577f4e487b7100000000000000000000000000000000000000000000000000000000600052603260045260246000fd5b602002602001018190525080806108249061111e565b9150506106fd565b508091505090565b600360009054906101000a900473ffffffffffffffffffffffffffffffffffffffff1681565b600260009054906101000a900473ffffffffffffffffffffffffffffffffffffffff1681565b82805461088c906110ec565b90600052602060002090601f0160209004810192826108ae57600085556108f5565b82601f106108c757805160ff19168380011785556108f5565b828001600101855582156108f5579182015b828111156108f45782518255916020019190600101906108d9565b5b5090506109029190610927565b5090565b60405180606001604052806000815260200160608152602001600081525090565b5b80821115610940576000816000905550600101610928565b5090565b600061095761095284610f5f565b610f2e565b90508281526020810184848401111561096f57600080fd5b61097a8482856110aa565b509392505050565b60008151905061099181611205565b92915050565b600082601f8301126109a857600080fd5b81356109b8848260208601610944565b91505092915050565b6000813590506109d08161121c565b92915050565b6000602082840312156109e857600080fd5b60006109f684828501610982565b91505092915050565b600060208284031215610a1157600080fd5b600082013567ffffffffffffffff811115610a2b57600080fd5b610a3784828501610997565b91505092915050565b600060208284031215610a5257600080fd5b6000610a60848285016109c1565b91505092915050565b6000610a758383610d28565b905092915050565b610a868161103e565b82525050565b6000610a9782610fb4565b610aa18185610fd7565b935083602082028501610ab385610f8f565b8060005b85811015610aef5784840389528151610ad08582610a69565b9450610adb83610fca565b925060208a01995050600181019050610ab7565b50829750879550505050505092915050565b610b0a81611086565b82525050565b6000610b1b82610fbf565b610b258185610fe8565b9350610b358185602086016110b9565b610b3e816111f4565b840191505092915050565b6000610b5482610fbf565b610b5e8185610ff9565b9350610b6e8185602086016110b9565b610b77816111f4565b840191505092915050565b60008154610b8f816110ec565b610b998186610ff9565b94506001821660008114610bb45760018114610bc657610bf9565b60ff1983168652602086019350610bf9565b610bcf85610f9f565b60005b83811015610bf157815481890152600182019150602081019050610bd2565b808801955050505b50505092915050565b6000610c0f602583610ff9565b91507f4f6e6c7920746865206f776e65722063616e2063616c6c20746869732066756e60008301527f6374696f6e0000000000000000000000000000000000000000000000000000006020830152604082019050919050565b6000610c75601e83610ff9565b91507f596f7520617265206e6f74207265676973746572656420746f20766f746500006000830152602082019050919050565b6000610cb5601183610ff9565b91507f496e76616c69642063616e6469646174650000000000000000000000000000006000830152602082019050919050565b6000610cf5601683610ff9565b91507f596f75206861766520616c726561647920766f746564000000000000000000006000830152602082019050919050565b6000606083016000830151610d406000860182610d78565b5060208301518482036020860152610d588282610b10565b9150506040830151610d6d6040860182610d78565b508091505092915050565b610d818161107c565b82525050565b610d908161107c565b82525050565b6000602082019050610dab6000830184610a7d565b92915050565b6000604082019050610dc66000830185610a7d565b610dd36020830184610d87565b9392505050565b60006020820190508181036000830152610df48184610a8c565b905092915050565b6000602082019050610e116000830184610b01565b92915050565b60006020820190508181036000830152610e3081610c02565b9050919050565b60006020820190508181036000830152610e5081610c68565b9050919050565b60006020820190508181036000830152610e7081610ca8565b9050919050565b60006020820190508181036000830152610e9081610ce8565b9050919050565b6000602082019050610eac6000830184610d87565b92915050565b6000606082019050610ec76000830186610d87565b8181036020830152610ed98185610b49565b9050610ee86040830184610d87565b949350505050565b6000606082019050610f056000830186610d87565b8181036020830152610f178185610b82565b9050610f266040830184610d87565b949350505050565b6000604051905081810181811067ffffffffffffffff82111715610f5557610f546111c5565b5b8060405250919050565b600067ffffffffffffffff821115610f7a57610f796111c5565b5b601f19601f8301169050602081019050919050565b6000819050602082019050919050565b60008190508160005260206000209050919050565b600081519050919050565b600081519050919050565b6000602082019050919050565b600082825260208201905092915050565b600082825260208201905092915050565b600082825260208201905092915050565b60006110158261107c565b91506110208361107c565b92508282101561103357611032611167565b5b828203905092915050565b60006110498261105c565b9050919050565b60008115159050919050565b600073ffffffffffffffffffffffffffffffffffffffff82169050919050565b6000819050919050565b600061109182611098565b9050919050565b60006110a38261105c565b9050919050565b82818337600083830152505050565b60005b838110156110d75780820151818401526020810190506110bc565b838111156110e6576000848401525b50505050565b6000600282049050600182168061110457607f821691505b6020821081141561111857611117611196565b5b50919050565b60006111298261107c565b91507fffffffffffffffffffffffffffffffffffffffffffffffffffffffffffffffff82141561115c5761115b611167565b5b600182019050919050565b7f4e487b7100000000000000000000000000000000000000000000000000000000600052601160045260246000fd5b7f4e487b7100000000000000000000000000000000000000000000000000000000600052602260045260246000fd5b7f4e487b7100000000000000000000000000000000000000000000000000000000600052604160045260246000fd5b6000601f19601f8301169050919050565b61120e81611050565b811461121957600080fd5b50565b6112258161107c565b811461123057600080fd5b5056fea2646970667358221220b28fb16034faabf50fa0b5145f144558a1696c10c934c9422ff54ba68f3ee28264736f6c63430008000033",
  "immutableReferences": {},
  "source": "// SPDX-License-Identifier: MIT\r\npragma solidity ^0.8.0;\r\n\r\nimport \"./VoterRegistration.sol\";\r\n\r\ncontract CandidateVoting {\r\n    struct Candidate {\r\n        uint id;\r\n        string name;\r\n        uint voteCount;\r\n    }\r\n\r\n    mapping(uint => Candidate) public candidates;\r\n    uint public candidatesCount;\r\n    address public owner;\r\n    VoterRegistration public voterRegistration;\r\n\r\n    modifier onlyOwner() {\r\n        require(msg.sender == owner, \"Only the owner can call this function\");\r\n        _;\r\n    }\r\n\r\n    event ElectionResult(uint candidateId, string candidateName, uint voteCount);\r\n\r\n    constructor(address _voterRegistration) {\r\n        owner = msg.sender;\r\n        voterRegistration = VoterRegistration(_voterRegistration);\r\n    }\r\n\r\n    function addCandidate(string memory _name) public onlyOwner {\r\n        candidatesCount++;\r\n        candidates[candidatesCount] = Candidate(candidatesCount, _name, 0);\r\n    }\r\n\r\n    function vote(uint _candidateId) public {\r\n        require(voterRegistration.isRegistered(msg.sender), \"You are not registered to vote\");\r\n        require(!voterRegistration.hasVoted(msg.sender), \"You have already voted\");\r\n        require(_candidateId > 0 && _candidateId <= candidatesCount, \"Invalid candidate\");\r\n\r\n        voterRegistration.recordVote(msg.sender, _candidateId);\r\n        candidates[_candidateId].voteCount++;\r\n\r\n        emit ElectionResult(_candidateId, candidates[_candidateId].name, candidates[_candidateId].voteCount);\r\n    }\r\n\r\n    function getResults() public view returns (Candidate[] memory) {\r\n        Candidate[] memory results = new Candidate[](candidatesCount);\r\n        for (uint i = 1; i <= candidatesCount; i++) {\r\n            results[i-1] = candidates[i];\r\n        }\r\n        return results;\r\n    }\r\n}\r\n",
  "sourcePath": "D:\\BLOCKCHAIN\\contracts\\CandidateVoting.sol",
  "compiler": {
    "name": "solc",
    "version": "0.8.0+commit.c7dfd78e.Emscripten.clang"
  },
  "schemaVersion": "3.4.16",
  "updatedAt": "2024-05-17T17:48:51.457Z",
  "networkType": "ethereum",
  "devdoc": {
    "kind": "dev",
    "methods": {},
    "version": 1
  },
  "userdoc": {
    "kind": "user",
    "methods": {},
    "version": 1
  }
}