{
  "contractName": "VoterRegistration",
  "abi": [
    {
      "inputs": [],
      "stateMutability": "nonpayable",
      "type": "constructor"
    },
    {
      "inputs": [],
      "name": "owner",
      "outputs": [
        {
          "internalType": "address",
          "name": "",
          "type": "address"
        }
      ],
      "stateMutability": "view",
      "type": "function",
      "constant": true
    },
    {
      "inputs": [
        {
          "internalType": "address",
          "name": "",
          "type": "address"
        }
      ],
      "name": "voters",
      "outputs": [
        {
          "internalType": "bool",
          "name": "voted",
          "type": "bool"
        },
        {
          "internalType": "uint256",
          "name": "candidateId",
          "type": "uint256"
        },
        {
          "internalType": "bool",
          "name": "isRegistered",
          "type": "bool"
        }
      ],
      "stateMutability": "view",
      "type": "function",
      "constant": true
    },
    {
      "inputs": [
        {
          "internalType": "address",
          "name": "_voter",
          "type": "address"
        }
      ],
      "name": "registerVoter",
      "outputs": [],
      "stateMutability": "nonpayable",
      "type": "function"
    },
    {
      "inputs": [
        {
          "internalType": "address",
          "name": "_voter",
          "type": "address"
        }
      ],
      "name": "isRegistered",
      "outputs": [
        {
          "internalType": "bool",
          "name": "",
          "type": "bool"
        }
      ],
      "stateMutability": "view",
      "type": "function",
      "constant": true
    },
    {
      "inputs": [
        {
          "internalType": "address",
          "name": "_voter",
          "type": "address"
        }
      ],
      "name": "hasVoted",
      "outputs": [
        {
          "internalType": "bool",
          "name": "",
          "type": "bool"
        }
      ],
      "stateMutability": "view",
      "type": "function",
      "constant": true
    },
    {
      "inputs": [
        {
          "internalType": "address",
          "name": "_voter",
          "type": "address"
        },
        {
          "internalType": "uint256",
          "name": "_candidateId",
          "type": "uint256"
        }
      ],
      "name": "recordVote",
      "outputs": [],
      "stateMutability": "nonpayable",
      "type": "function"
    }
  ],
  "bytecode": "0x608060405234801561001057600080fd5b5033600160006101000a81548173ffffffffffffffffffffffffffffffffffffffff021916908373ffffffffffffffffffffffffffffffffffffffff160217905550610843806100616000396000f3fe608060405234801561001057600080fd5b50600436106100625760003560e01c806309eef43e1461006757806338db6dd3146100975780638da5cb5b146100b3578063a3ec138d146100d1578063a446b90014610103578063c3c5a5471461011f575b600080fd5b610081600480360381019061007c9190610541565b61014f565b60405161008e91906106d4565b60405180910390f35b6100b160048036038101906100ac9190610541565b6101a7565b005b6100bb610294565b6040516100c891906106b9565b60405180910390f35b6100eb60048036038101906100e69190610541565b6102ba565b6040516100fa939291906106ef565b60405180910390f35b61011d6004803603810190610118919061056a565b6102fe565b005b61013960048036038101906101349190610541565b6104bf565b60405161014691906106d4565b60405180910390f35b60008060008373ffffffffffffffffffffffffffffffffffffffff1673ffffffffffffffffffffffffffffffffffffffff16815260200190815260200160002060000160009054906101000a900460ff169050919050565b600160009054906101000a900473ffffffffffffffffffffffffffffffffffffffff1673ffffffffffffffffffffffffffffffffffffffff163373ffffffffffffffffffffffffffffffffffffffff1614610237576040517f08c379a000000000000000000000000000000000000000000000000000000000815260040161022e90610726565b60405180910390fd5b60016000808373ffffffffffffffffffffffffffffffffffffffff1673ffffffffffffffffffffffffffffffffffffffff16815260200190815260200160002060020160006101000a81548160ff02191690831515021790555050565b600160009054906101000a900473ffffffffffffffffffffffffffffffffffffffff1681565b60006020528060005260406000206000915090508060000160009054906101000a900460ff16908060010154908060020160009054906101000a900460ff16905083565b6000808373ffffffffffffffffffffffffffffffffffffffff1673ffffffffffffffffffffffffffffffffffffffff16815260200190815260200160002060020160009054906101000a900460ff1661038c576040517f08c379a000000000000000000000000000000000000000000000000000000000815260040161038390610766565b60405180910390fd5b6000808373ffffffffffffffffffffffffffffffffffffffff1673ffffffffffffffffffffffffffffffffffffffff16815260200190815260200160002060000160009054906101000a900460ff161561041b576040517f08c379a000000000000000000000000000000000000000000000000000000000815260040161041290610746565b60405180910390fd5b60016000808473ffffffffffffffffffffffffffffffffffffffff1673ffffffffffffffffffffffffffffffffffffffff16815260200190815260200160002060000160006101000a81548160ff021916908315150217905550806000808473ffffffffffffffffffffffffffffffffffffffff1673ffffffffffffffffffffffffffffffffffffffff168152602001908152602001600020600101819055505050565b60008060008373ffffffffffffffffffffffffffffffffffffffff1673ffffffffffffffffffffffffffffffffffffffff16815260200190815260200160002060020160009054906101000a900460ff169050919050565b600081359050610526816107df565b92915050565b60008135905061053b816107f6565b92915050565b60006020828403121561055357600080fd5b600061056184828501610517565b91505092915050565b6000806040838503121561057d57600080fd5b600061058b85828601610517565b925050602061059c8582860161052c565b9150509250929050565b6105af81610797565b82525050565b6105be816107a9565b82525050565b60006105d1602583610786565b91507f4f6e6c7920746865206f776e65722063616e2063616c6c20746869732066756e60008301527f6374696f6e0000000000000000000000000000000000000000000000000000006020830152604082019050919050565b6000610637601783610786565b91507f566f7465722068617320616c726561647920766f7465640000000000000000006000830152602082019050919050565b6000610677601783610786565b91507f566f746572206973206e6f7420726567697374657265640000000000000000006000830152602082019050919050565b6106b3816107d5565b82525050565b60006020820190506106ce60008301846105a6565b92915050565b60006020820190506106e960008301846105b5565b92915050565b600060608201905061070460008301866105b5565b61071160208301856106aa565b61071e60408301846105b5565b949350505050565b6000602082019050818103600083015261073f816105c4565b9050919050565b6000602082019050818103600083015261075f8161062a565b9050919050565b6000602082019050818103600083015261077f8161066a565b9050919050565b600082825260208201905092915050565b60006107a2826107b5565b9050919050565b60008115159050919050565b600073ffffffffffffffffffffffffffffffffffffffff82169050919050565b6000819050919050565b6107e881610797565b81146107f357600080fd5b50565b6107ff816107d5565b811461080a57600080fd5b5056fea264697066735822122004fc05ad36bcb5234ef7a21760a026571166cdb8fa07a52c0577c9ba445a896664736f6c63430008000033",
  "immutableReferences": {},
  "source": "// SPDX-License-Identifier: MIT\r\npragma solidity ^0.8.0;\r\n\r\ncontract VoterRegistration {\r\n    struct Voter {\r\n        bool voted;\r\n        uint candidateId;\r\n        bool isRegistered;\r\n    }\r\n\r\n    mapping(address => Voter) public voters;\r\n    address public owner;\r\n\r\n    modifier onlyOwner() {\r\n        require(msg.sender == owner, \"Only the owner can call this function\");\r\n        _;\r\n    }\r\n\r\n    constructor() {\r\n        owner = msg.sender;\r\n    }\r\n\r\n    function registerVoter(address _voter) public onlyOwner {\r\n        voters[_voter].isRegistered = true;\r\n    }\r\n\r\n    function isRegistered(address _voter) public view returns (bool) {\r\n        return voters[_voter].isRegistered;\r\n    }\r\n\r\n    function hasVoted(address _voter) public view returns (bool) {\r\n        return voters[_voter].voted;\r\n    }\r\n\r\n    function recordVote(address _voter, uint _candidateId) public {\r\n        require(voters[_voter].isRegistered, \"Voter is not registered\");\r\n        require(!voters[_voter].voted, \"Voter has already voted\");\r\n\r\n        voters[_voter].voted = true;\r\n        voters[_voter].candidateId = _candidateId;\r\n    }\r\n}\r\n",
  "sourcePath": "D:\\BLOCKCHAIN\\contracts\\VoterRegistration.sol",
  "compiler": {
    "name": "solc",
    "version": "0.8.0+commit.c7dfd78e.Emscripten.clang"
  },
  "schemaVersion": "3.4.16",
  "updatedAt": "2024-05-17T17:48:51.454Z",
  "networkType": "ethereum",
  "devdoc": {
    "kind": "dev",
    "methods": {},
    "version": 1
  },
  "userdoc": {
    "kind": "user",
    "methods": {},
    "version": 1
  }
}